:020000040800F2
:10000000000400201D8100081F8100081F810008D6
:100010001F8100081F8100081F8100081F81000840
:100020001F8100081F8100081F810008051E0108AC
:100030001F8100081F8100081F8100081F81000820
:100040001F8100081F810008F14001085941010883
:100050001F8100081F810008B92A0108E12A010850
:10006000092B0108312B0108592B0108A93001087F
:10007000D1300108FD30010829310108553101084E
:100080007D310108A93101081F8100081F81000886
:100090001F8100081F8100081F810008812B0108B3
:1000A0001F8100081F8100081F8100081F810008B0
:1000B000552C01081F8100081F8100081F810008BE
:1000C0001F8100081F8100081F8100081F81000890
:1000D0001F8100081F8100081F8100081F81000880
:1000E000E52B0108914101081F8100081F810008CC
:1000F0001F8100081F8100081F810008D5310108F9
:100100001F8100081F8100081F8100081F8100084F
:100110001F8100081F8100081F8100081F8100083F
:1001200001320108293201085532010881320108E3
:10013000AD3201081F8100081F8100081F810008DF
:100140001F8100081F8100081F810008453D01082C
:10015000D5320108013301082D3301081F81000841
:100160001F8100081F8100081F8100081F810008EF
:100170001F8100081F8100081F8100081F810008DF
:100180001F8100081F8100081F8100081F810008CF
:100190001F8100081F8100081F8100081F810008BF
:1001A0001F8100081F8100081F8100081F810008AF
:1001B0001F8100081F8100081F8100081F8100089F
:1001C0001F8100081F8100081F8100081F8100088F
:1001D0001F8100081F8100081F8100081F8100087F
:1080000072B6374880F30888364880F309883648C6
:108010003649086040F20000CCF200004EF63471A0
:10802000CEF200010860BFF34F8FBFF36F8F40F2B5
:108030000000C0F2F0004EF68851CEF20001086058
:10804000BFF34F8FBFF36F8F4FF00000E1EE100AC8
:108050004EF63C71CEF200010860062080F31488D1
:10806000BFF36F8F09F04AFB08F0F8FE4FF0553070
:108070001F491B4A91423CBF41F8040BFAE71D49D6
:10808000184A91423CBF41F8040BFAE71A491B4ACF
:108090001B4B9A423EBF51F8040B42F8040BF8E721
:1080A00000201849184A91423CBF41F8040BFAE7F6
:1080B00009F028FB09F023FB144C154DAC4203DA00
:1080C00054F8041B8847F9E704F080FF114C124D67
:1080D000AC4203DA54F8041B8847F9E709F010BBF7
:1080E00000040020000C00200000000808ED00E063
:1080F0000000002000040020606A0108000C00203D
:108100008013002080130020004C00200080000815
:1081100000800008008000080080000870E700F080
:1081200000F8FEE72DE9F04F2DED108AC1F80CD0D4
:10813000C3689D46BDEC108ABDE8F08F002383F331
:1081400011882846A047002009F08AFDFEE709F0C3
:10815000E3FC00DFFEE7000053B94AB9002908BF7D
:1081600000281CBF4FF0FF314FF0FF3000F00CB87B
:10817000ADF1080C6DE904CE0CF0BEFBDDF804E0B7
:10818000DDE9022304B07047704700BF034613F8CF
:10819000012B002AFBD1181A01387047000000009B
:1081A00001F0FF01102A2BDB10F0070F08D010F8A8
:1081B000013B013A8B422DD010F0070F42B3F6D1AC
:1081C000F0B441EA012141EA014122F007047FF0C5
:1081D00000070023F0E80256083C85EA010586EA1C
:1081E000010685FA47F5A3FA87F586FA47F6A5FA58
:1081F00087F68EB9EED1F0BC01F0FF0102F0070264
:1082000032B110F8013B013A83EA010313B1F8D10E
:108210000020704701387047002D06BF35460338EF
:10822000073815F0010F07D1013015F4807F02BF28
:10823000013015F4C03F0130F0BC0138704700BF79
:10824000034B1B78032B06BF024B187800207047A6
:10825000811300208213002008B530220448002139
:108260000CF036FE034A00231370034A137008BD56
:1082700094250020C4250020C525002037B50D4DCC
:108280000D4A019028781178441C04F00F0399429C
:108290001C4602BF013303F00F031370074B00EBC2
:1082A0004000032201A918440CF061FE01202C704B
:1082B00003B030BDC4250020C52500209425002032
:1082C00008B5084B01221A70FFF7C6FF00F0D6FA76
:1082D00001F0B6F801F030FF01F048FDBDE80840BC
:1082E00002F038B98113002038B504460D4601F07C
:1082F0009FFF50B9054B9B6813B12946204698470C
:10830000034B04221A70034B1C7038BD1C0C002058
:10831000811300208313002010B501F089FFA8B954
:1083200008F0F8F990B10A4C2378052B07D101F039
:10833000C9F820B9074B2078197801F02FFA064BBD
:1083400000215B68084698470523237010BD00BFD5
:1083500081130020831300201C0C002030B58BB04B
:10836000054601F065FF30B9144B1B78042B04D18E
:10837000134B1B781BB90BB030BD032B17D1114B1E
:108380001B69002BF7D000F0CDFA01230446082228
:1083900029460DF106008DF804300CF0E8FD01A827
:1083A00000F08AFA002CE6D000F0ECFAE3E7002BAC
:1083B000E1D00BB0BDE83040FFF7AEBF8113002025
:1083C000801300201C0C002030B58BB0054601F056
:1083D0002FFF30B9144B1B78042B04D1134B1B789F
:1083E0001BB90BB030BD032B17D1114B5B69002BB0
:1083F000F7D000F097FA02230446202229460DF117
:1084000006008DF804300CF0B2FD01A800F054FA1B
:10841000002CE6D000F0B6FAE3E7002BE1D00BB079
:10842000BDE83040FFF778BF8113002080130020A3
:108430001C0C002010B5044601F0FAFE78B9084B78
:108440001B78032B06D1074B1B6A43B12046BDE8BE
:10845000104018471BB1BDE81040FFF75DBF10BDCD
:10846000811300201C0C002070B504460D4601F05D
:10847000DFFE98B90A4E54B10A4B1A78A24202D1D3
:108480003278032A0AD01C70074B00221A70074B5F
:1084900029465B68204698470523337070BD00BFAE
:1084A0008113002083130020821300201C0C002065
:1084B000024BDB6803B11847704700BF1C0C00205B
:1084C000704770477047704770477047054B1B787F
:1084D000032B03D1044BDB691BB118470BB1FFF72A
:1084E0001BBF7047811300201C0C002010B5134BDC
:1084F0001B78032B8AB0044619D100F013FA60B13F
:1085000000F024FA48B10E4B9B690BB12046984706
:108510000AB0BDE8104000F011BA032301A88DF89D
:108520000430ADF8064000F0C7F90AB010BD002BCA
:10853000FBD00AB0BDE81040FFF7EEBE811300206B
:108540001C0C002010B5044601F072FEA0B923787F
:10855000032B07D16378A078BDE8104043EA0020E0
:10856000FFF7B4BF042B07D16378A078BDE81040B3
:1085700043EA0020FFF7BABF10BD000010B500208D
:1085800088B000F0C1FF00F079F903F0B3FA41F2CE
:10859000883009F06AFB174B174C93F90030002B19
:1085A00022DA2022002168460CF092FC63690DF16A
:1085B000010098474FF47A7009F057FBA369002037
:1085C00098474FF47A7009F050FB00230093ADF800
:1085D00004306846236A984747F2305009F045FB5B
:1085E000FFF766FF08B010BD0023CDE900336846F1
:1085F0002369DEE70A4800201C0C00202DE9F04723
:10860000774E784D96F800C02B7800279C4540F0B7
:10861000BE800FB185F800C0BDE8F0872B70724BAB
:10862000002220461A7002F033F8EBE72B706E4BF5
:1086300003202146187001F0B1F86C4B1C7003F058
:1086400059FA2046FFF73EFF01F0E8FD10B1012086
:1086500000F05AFF664B5C6A14B101F0B5FDA0470B
:1086600001F076FBCEE72B70604B1C705E4B042054
:108670002146187001F092F82046FFF721FFC1E76C
:108680002B705A4B1C70584B05202146187001F076
:1086900085F82046FFF715FFB4E702EB42020244DB
:1086A000514FDFF85C912B70002392F8028097F80D
:1086B00000A089F8003001F0DBFA10F0060F03D0BB
:1086C00099F8000001F0A4F90220BAF1030F387004
:1086D00012D101F03DFB2146062001F05FF800F0C9
:1086E000CDF8444B0027204641461F7001F0D2FFD1
:1086F000384600F009FF85E7214601F04FF8B8F150
:10870000000FECD001F0B4FA10F0060FE7D049F6F4
:10871000404000F0B6FEE2E7374A2B70137823F0B2
:1087200080031370354B01221A70FFF7CCFE69E706
:108730002B7003F007FF304B1880304B00221A706B
:10874000FFF7C2FE5EE7284F2B702D4B00241C70F4
:108750003B78033B012B3FF655AF06233B7001F0FE
:10876000F7FAFFF7B2FE3878214601F017F82046F5
:10877000BFE72B70224B1C7044E72B70214B00226B
:108780001A703FE720462B7000F0F0F83AE71E48D9
:108790001A4603EB43031C18C15C6478531C01396F
:1087A00003F00F0301270A293FF630AF0FF2040E42
:1087B0005EF821F01D8600086786000881860008A3
:1087C0002D8600089B86000819870008318700085D
:1087D000478700087B8700087387000885870008A3
:1087E000C4250020C525002081130020831300200C
:1087F0001C0C0020841300200A4800208013002055
:1088000082130020180C00209425002008B5084B86
:108810009B6A9847FFF7F2FE00F0B4F801F0D8F831
:1088200001F04EFF01F046FDBDE8084001F03CBB01
:108830001C0C0020014B1878704700BF81130020EA
:1088400038B505460C4601F013FA10F0060F0DD0AE
:1088500001F07EFA01F0E2FC40B1074B1B78032BDC
:1088600004D1637913B1012000F04EFE2146284661
:10887000BDE8384001F084BE8113002008B54FF4F4
:108880000852002107480CF023FB074A00231380FD
:10889000064A1380064A137007F03CFF054B186028
:1088A00008BD00BFEC250020EA250020C6250020D9
:1088B000841300208C13002038B50A4D0A4A2B88F7
:1088C00012885C1CE4B2A242014608D0074822226A
:1088D00002FB03000CF04BFB2C80012038BD002074
:1088E000FCE700BFEA250020C6250020EC2500207B
:1088F00038B5094D094B2C881B88A3420AD008497A
:10890000222202FB04110134E4B20CF030FB2C8073
:10891000012038BD0020FCE7C6250020EA25002004
:10892000EC250020034B1888034B1B88C31A5842C0
:1089300058417047EA250020C625002008B507F0F9
:10894000E9FE014B186008BD8C13002008B5054BEB
:10895000186807F021FF044B1B78984294BF002051
:10896000012008BD8C130020190C0020014B187049
:10897000704700BF190C0020014B1870704700BFF2
:108980008413002038B5FFF755FF03284AD1FFF7BD
:10899000C9FF18B1244B1B78002B43D0FFF7D6FF3B
:1089A00000283FD0204C23785BBB204D2846FFF7A2
:1089B0009FFF002836D02B78002B33D007F0AAFE7B
:1089C00002282FD91E23237007F0A4FE174C184B42
:1089D00018602378022B1DD1164B5B694BB1E01C4C
:1089E00098472378032B04D1124B9B690BB1608805
:1089F000984707F08FFE104B1860BDE8384001F033
:108A0000A7B90B4B186807F0C7FE02280AD92378CC
:108A1000013BD8E7012BE4D1064B1B69002BE8D0C2
:108A2000A01CDDE738BD00BF84130020C82500204E
:108A3000881300201C0C00208C13002070B5044605
:108A400060B91F48012210210AF072FD1C4B10254D
:108A50001E465D83642009F008F93583194B1B78A5
:108A6000FBB91948012220210AF062FD164B202192
:108A70001983184640F282220AF05AFD124840F249
:108A8000822240210AF054FD0F4840F282228021C8
:108A90000AF04EFD1CB1BDE8704009F031BC09F090
:108AA0002FFC0948012210210AF042FD064A07481E
:108AB00010231383BDE87040202202210AF038BD44
:108AC00000080240C84B00200000024000040240A1
:108AD00010B50E4C206807F05FFE40F6B8339842A0
:108AE00012D907F017FE2060094C4FF48013A361E0
:108AF0004FF47A7009F0B9F81023A36147F23050AF
:108B0000BDE8104009F0B1B810BD00BF98130020B7
:108B100000000240F0B591B006460C4617461D46CF
:108B20004022002168460CF0D3F92C4A15B913787D
:108B30000133137013780BB9012313703246A01957
:108B40000025904244D147F68462ADF80020AA2265
:108B50008DF80420A21C8DF80620C4F1FD028DF8CA
:108B600007203146224655370DF109008DF80830AF
:108B70008DF805700CF0FBF910AA04F1090352FA04
:108B800083F3174903F8405C04F10A0352FA83F3B4
:108B90002D0A03F8405C134D134B402228461A70EF
:108BA00009F0B8FB284609F0D4FB04F10B016A4632
:108BB000C9B2284609F00DFC6B681969DA6801230F
:108BC0008B409BB21383284609F0B5FB11B0F0BD72
:108BD00012F8011B29448DB2B3E700BF92130020A5
:108BE000785B0108C84B00204A0C002010B53F22DA
:108BF0000446002109480CF06BF9084A0748112384
:108C000002F8013C214608220CF0B1F9BDE8104001
:108C10000348002301220921FFF77CBF9D13002098
:108C20009C13002010B53F220446002109480CF097
:108C30004FF9084A0748122302F8013C2146142242
:108C40000CF095F9BDE810400348002301221521DE
:108C5000FFF760BF9D1300209C13002010B53D223C
:108C60000446002109480CF033F9084A132302F89E
:108C7000024C240A02F8033C02F8014CD01EBDE865
:108C80001040002301220721FFF744BF9F1300205B
:108C900010B5C4B204F17F03DBB2022B14D83E221C
:108CA00000210A480CF014F9084A142302F8023C87
:108CB000901E813C012202FA04F44470BDE8104089
:108CC00000230221FFF726BF10BD00BF9E13002026
:108CD00010B53F22044600210F480CF0F9F80E4869
:108CE000162300F8013C637800F80139A3788370FB
:108CF00043F3C013C370E378037143F3C0134371AC
:108D0000237983716379C3710023BDE810401A464B
:108D10000821FFF7FFBE00BF9D1300207FB5064668
:108D20000C463E2200211B481B4D0CF0D1F81B4A7B
:108D30006E7007CA01AB83E80700002C08BF1C4611
:108D400021232B706388AB706388A6681B0AEB70C5
:108D500023792B7163796B71A379AB71BEB1304606
:108D6000FFF714FA31460246E81D0CF000F9A0683E
:108D7000FFF70CFAC41DE4B2FFF7AAFE0648002371
:108D80000122214604B0BDE87040FFF7C3BE0724AE
:108D9000F2E700BF9E1300209C130020685B0108CF
:108DA00070B53C2206460C460C4800210CF090F8A9
:108DB0000A4A2223151F02F8024C240A02F8043C36
:108DC00002F8036C02F8014CFFF782FE28460023EC
:108DD000BDE8704001220421FFF79CBEA0130020D3
:108DE0003F2210B5104800210CF072F80E4A0F48CF
:108DF000232302F8013C0378022B02D00C4909F02E
:108E000089FA0A4809F0A5FA40F6B83008F02DFFB3
:108E100041F6583008F029FFBDE81040054800230E
:108E200001220221FFF776BE9D130020C84B0020CF
:108E3000785B01089C13002010B53E2204460021F7
:108E400008480CF045F8074A322302F8023C02F8C1
:108E5000014C0023901EBDE810401A460221FFF786
:108E600059BE00BF9E13002030B591B04022054688
:108E70000C46684600210CF02BF847F684730D4928
:108E8000ADF800300C4880238DF8033009F042FA29
:108E9000094809F05EFA211D2B466A46C9B2064808
:108EA00009F086FA044809F062FA034809F043FA27
:108EB00011B030BD785B0108C84B002010B53F22CF
:108EC000002108480CF004F8064AA42302F8013CEB
:108ED00010460023BDE810401A4601210138FFF773
:108EE00019BE00BF9D13002070B53D2205460C46FB
:108EF000094800210BF0ECFF074A252302F8033C48
:108F000002F8025C002302F8014CD01EBDE870405C
:108F10001A460321FFF7FEBD9F13002010B53E2225
:108F20000446002108480BF0D3FF074A332302F818
:108F3000023C02F8014C0023901EBDE810401A4686
:108F40000221FFF7E7BD00BF9E13002010B53F22AE
:108F50000446002109480BF0BBFF084A074841239B
:108F600002F8013C214616220CF001F80023BDE86E
:108F7000104003481A461721FFF7CCBD9D1300206F
:108F80009C13002070B50546FFF700F93F22044608
:108F900000210A480BF09CFF084A0848452302F8C4
:108FA000013C2946E2B20BF0E2FF611C0023BDE860
:108FB000704003481A46C9B2FFF7ACBD9D130020AC
:108FC0009C13002038B5002104463E220B480BF0CC
:108FD0007FFF0A4A7123951E02F8023C02F8014CF9
:108FE000FFF776FD00231A4602212846FFF792FD7F
:108FF00007F090FB024B186038BD00BF9E130020A5
:109000009413002010B53E220446002108480BF0BE
:109010005FFF074A722302F8023C02F8014C00236A
:10902000901EBDE810401A460221FFF773BD00BF35
:109030009E13002010B53E220446002108480BF084
:1090400047FF074A732302F8023C02F8014C002351
:10905000901EBDE810401A460321FFF75BBD00BF1C
:109060009E130020F0B589B0144606460D46202216
:10907000002168461F460BF02BFF4AF60323ADF88C
:10908000003057238DF802302246E34329460DF184
:1090900007008DF804308DF803408DF805708DF8C9
:1090A00006600BF064FF2021684607F0B7FE192C1C
:1090B00014D91F2200210DF101000BF009FF032339
:1090C00005F11901A4F119020DF101008DF800302C
:1090D0000BF04DFF2021684607F0A0FE09B0F0BD5F
:1090E0002DE9F043A94B1B6900259B0793B02E4641
:1090F00000F1F7804022294602A80BF0E9FEA44BBC
:1091000002A81978FFF7B0FE9DF80C30AA2B40F0AA
:1091100093809DF80D40542C08D19DF81030AB2B56
:1091200004D19DF81130552B00F0868000232707CD
:10913000ADF804308DF8063009D501238DF80430E0
:109140009DF80E308DF805300198FFF797F8E0078D
:109150002CD5FFF7B3FE9DF80E30203B062B1ED812
:10916000DFE803F004080A0CC2C4C60004238DF82B
:10917000043014E00223FAE70323F8E7854F386848
:1091800005238DF8043050B107F006FB40F6B733E5
:10919000984204D800233B6001238DF806309DF8E7
:1091A0000F308DF805300198FFF768F8A1070CD54E
:1091B00000238DF806300A238DF804309DF8103016
:1091C0008DF805300198FFF759F8E20629D59DF989
:1091D00014209DF81430002AADBFC3EB431203F0F6
:1091E0007F0340F2E24203EB8203B8BF13FB02F3BA
:1091F000B3F5FA5F4FF47A72B3FBF2F2A8BF032320
:1092000092B2A8BFB2FBF3F2634B8DF805201A802F
:1092100000238DF806300B238DF804300198FFF7FA
:109220002DF8630708D59DF811309DF81210012024
:1092300043EA012100F08EFF584F97F800C0BCF1BF
:10924000000F57D00DF112033122002002AC197823
:10925000AA29984603F1010310D1197857290DD195
:1092600093F801E093F802906FEA0E01C9B28945C4
:1092700001BFDE7808F1050460467546013A12F038
:10928000FF02E4D168B3464B3A701D70454B1E7027
:10929000434B19783B2924D8012300223B70881EB8
:1092A0001346824228DB6218D8B212F8025C85426B
:1092B00017D112F8012CB2EB132F12D12546394BDE
:1092C00015F8010B1B7800220339A328C9B2ADF8A9
:1092D00004208DF8062053D013D8A1281AD0A22834
:1092E00044D013B0BDE8F083062340E707233EE7F0
:1092F00008233CE702ACCBE7A55C2B449BB20132D0
:10930000CFE7B02828D0B428EBD163788DF80530AA
:109310000A2325E0A378142B0FD8102BE1D9E0788D
:1093200002280DD0032813D00028DAD1FFF724FB40
:10933000194B1878FFF71AFBD3E7162BD1D1EEE7BC
:109340000020FFF719FB144B18880530C0B2F1E775
:10935000114B18880A30F9E763788DF8053001233E
:109360008DF804300198FEF789FFBAE7E378002B07
:10937000B7D1A378722BB4D1284601F027FCB0E70F
:109380000A462946FFF76EFEABE700BF0004024025
:109390004A0C002094130020480C00201B0C0020D5
:1093A0001A0C0020901300202DE9F0410378AA2B1D
:1093B000044641D14378553B012B3DD8C278837890
:1093C000D243D2B2934237D11B2B35D8461D051D4F
:1093D0006FF0030000229F1E001B41198F4226DC04
:1093E0003344D1B213F8020C884225D113F8013C62
:1093F000B3EB122F20D1114B22791978914218BF6B
:109400001A70627902F0F00214BF00250125602A6B
:1094100012D1FFF75DFB6278A2F156014A422B465A
:109420004A413046F9B2BDE8F041FFF773BB15F889
:10943000011F0A4492B2D0E7BDE8F08191130020E9
:1094400008B51822002107480BF042FD012206480A
:109450004FF480510AF06CF8034A4FF48053538361
:1094600008BD00BFF04700200004024008B505F029
:10947000F9FC18B9BDE8084005F0EEBD08BD05F0DF
:10948000E1BC08B505F062FEBDE8084005F064BE29
:1094900008B505F0E7FC003818BF012008BD000042
:1094A00010B5074C08221821204603F033FE23781C
:1094B000032B03D8BDE8104004F03CBC10BD00BF36
:1094C00028480020044B1878044B5B7C1843003874
:1094D00018BF0120704700BFE4130020F0470020B0
:1094E00008B5084B00225A74FFF7DAFFFFF7D0FFE8
:1094F00018B1BDE80840FFF7B9BFBDE8084005F066
:10950000A1BC00BFF047002010B51E4C40B301F0D5
:1095100023F8236883420FD91B4A127812B92060BE
:1095200080B110BD03442360002BFAD0C01A47F26B
:109530003053984202D8F4E7002BF7D1124B1B7836
:10954000002BEED107F0E6F8104B186001F004F89C
:109550000D4B206001221A70BDE81040FFF786BF56
:10956000094B206018700A4B4FF480525A83FFF762
:1095700097FF05F077FC0028D3D1BDE8104005F037
:1095800061BC00BFE0130020E4130020E8130020BA
:109590000004024010B500F06BFB012803D1084B1A
:1095A0001B78052B0BD006F0A5FE830707D5FF23FC
:1095B000BDE810401A4619462C2004F0EBBB10BD44
:1095C0005C4B002070B500F053FB10F0060F6CD020
:1095D00000F02EFE044630B100221146104604F081
:1095E000E3FB012070BD00F019FE20B122462146A8
:1095F000204604F0D9FB2E4B1B781BB103F00F0261
:10960000052A20D900F0E4FE08B100F0E9FE294D5A
:109610006A7C002A49D02B7C02F00F04E3B10022BF
:109620001146104604F0C0FB6B7C03F010021B06D1
:1096300032D532B30023FF221946122027E000233F
:109640001A46194604E01A06F9D500231A46FF21E6
:109650004A2004F09FFBD5E7174E3178A142E3D0B2
:1096600012F0100206D01A461946122004F092FB9E
:109670003470D9E711482044134610F8010C114604
:10968000F4E70E48FF232044114610F8010C04F0C3
:1096900081FB04F092FCA4E712B100231A46CBE749
:1096A0000648134620441146EFE7FFF773FFF0E743
:1096B000E4130020F04700204B0C0020905B0108D1
:1096C00010B50378324A334C052B18BF137012784B
:1096D000637C042A04D8DFE802F01B031128400051
:1096E0002D4B00221A80637C03F01F036374FFF785
:1096F00069FF0023637400F02BFB09E043B162694A
:10970000002AF0D163F07F036374E36803B16361FF
:10971000637C002B3AD1FFF7C3FE05F0A3FB0028C2
:1097200034D1BDE8104005F08DBB002BF0D061694D
:10973000A288E06861B943F080036374164B1A8015
:1097400008B18142CFD8002ACDD00A446261DFE758
:10975000821A03F01F0392B2EFE7002BD8D01A064B
:109760004CBF03F01F0363F07F030B4A4BBF6374CE
:1097700063742389A3881380E26812B161698A4205
:10978000B1D3002BAFD062691A44DFE710BD00BF30
:10979000F0130020F0470020F21300202DE9F843D9
:1097A00005460C4600F064FA012811D04D4B182CE8
:1097B0001A7808BF1124A2420CD0022D0AD01C70C6
:1097C000012249490B78AB4206D12AB9052D07D0B1
:1097D000BDE8F8830022F4E7062B01D1022DF7D073
:1097E000424F0D703B7006F095FF414BDFF81C8136
:1097F0001860FFF73BFE05F0AFFCAB1E042B18D83A
:10980000DFE803F0032443555D003A4EDFF8F8909B
:109810000FCE4C460FC496E8030084E80300484688
:10982000FFF74EFF00F004FD30B14FF47A70FFF700
:1098300028FE88F80050CBE73B78032BF5D0D9F809
:109840000C30002B38D049F640401AE098F8003030
:10985000DFF8B490032B0CD0274F0FCF4E460FC626
:1098600097E8030086E80300484689F81140FFF7AF
:1098700027FFD9F80C30FBB1204A10884FF47A72D8
:109880005043984238BF1846D1E7DFF87C901C4F10
:109890004E460FCF0FC697E8030064F07F0486E8BA
:1098A0000300484689F81140FFF70AFFC7E7DFF8D1
:1098B0005890144F4E46ECE74FF0FF30B7E70D4E8F
:1098C000114C0FCE0FC496E8030084E80300A4F106
:1098D0001000FFF7F5FE01F009F90028A5D040F6C9
:1098E000B830A4E7DE130020DD130020DC130020D5
:1098F000EC130020945B0108C45B0108160C0020E7
:10990000DC5B0108AC5B0108F0470020F413002089
:1099100008B500F0ADF9012803D1034B1B78052BE6
:1099200001D0FFF737FE08BD5C4B002008B506F0FC
:10993000E1FC80F00200C0F3400008BD70B5214C8E
:109940002378002B3DD003F00F03052B09D91E4BC4
:109950004FF480525A8300232370BDE8704000F01A
:10996000F7B91A4E306806F017FFB0F57A7F237802
:1099700023D913F0800F144D18D003F07F03013367
:1099800023704FF480536B8306F0C4FE237830605D
:1099900003F00F03052B14D94FF480536B83FFF7AB
:1099A000C5FF70B1BDE8704005F04CBA63F07F03AD
:1099B00023704FF480532B83E6E703F00F03052B4E
:1099C000C5D870BDE413002000040240E813002055
:1099D00010B500F099FD0A4B5B7C6BB1094C206817
:1099E00006F0DAFE084B1B88984205D30748FFF7BC
:1099F00067FE06F08FFE2060BDE81040FFF79EBFB7
:109A0000F0470020EC130020F2130020F013002098
:109A100038B5054601F045FD0446F0B1284601F091
:109A200042FD05F01FFA88B905F0B6FB0022114689
:109A3000104604F0B9F9FFF7ADFD094BDB68984714
:109A4000FFF774FF48B105F09BFB06E005F00AFA4A
:109A500018B105F087FB0028E6D1204638BD00BFCD
:109A6000A0630108704708B500F03EFEFEF7CEFE89
:109A7000FFF7F8FF00F0FCF8012801D100F0FEF834
:109A8000012008BD37B50446B8B11548154D06F09C
:109A90001DFCFEF70DFD06F03DFE0446204606F0D7
:109AA0007BFE312806D900211E2003B0BDE83040DE
:109AB000FEF7DABCAB6A9847F0E7FFF711FDFEF757
:109AC000B9FE032809D1084B1B78022B05D1044BA2
:109AD00000945B6801946846984703B030BD00BFAE
:109AE000000C00201C0C0020F513002037B50446A4
:109AF000B8B11548154D06F0E9FBFEF7D9FC06F0A4
:109B000009FE0446204606F047FE312806D900210A
:109B1000182003B0BDE83040FEF7A6BCAB6A9847FA
:109B2000F0E7FFF7DDFCFEF785FE032809D1084BBF
:109B30001B78042B05D1044B00945B6801946846A4
:109B4000984703B030BD00BF000C00201C0C002063
:109B5000F513002007B5034650B106F0BDFB0B4BD3
:109B600083420FD0184603B05DF804EB06F0AEBB9D
:109B7000074A1278042A05D100930193034B6846E3
:109B80005B68984703B05DF804FB00BF340E00200B
:109B90005C4B002070B5334D2B78834204465FD078
:109BA000012B3FD101F0A6FF022C2C703FD0042CDA
:109BB0004CD0012C10D12046FFF7CCFF0020FFF73E
:109BC00061FF4FF4FA7008F050F80020FFF78EFFA5
:109BD000FEF76EFC00F0D6F8FFF732FC302383F37B
:109BE000118808F082F90023054683F311881E4E80
:109BF00008F07BF93446401B4FF47A7C0021E0FBEF
:109C00000C411A4A00232046FEF7A6FA6328EFD932
:109C100005F0E6F84FF0FF3005F098FABDE8704027
:109C200005F09ABAFEF706FE0328BDD1BAE7002078
:109C3000FFF75CFF642008F018F80120FFF722FF0F
:109C40000020FFF787FF00F083F8C5E70020FFF74B
:109C500019FF642008F009F80120FFF747FFEFE73C
:109C600070BD00BFF51300209F860100A086010093
:109C7000014B1878704700BFF513002038B5214C10
:109C80002378052B3DD1204D2378052B07D002F0FA
:109C9000BFFB06F075F9BDE8384007F005B800F0E5
:109CA00023FD2B78012B03D0BDE8384001F0DBBB4E
:109CB00006F0FCFC06F0E1FCF0B1204608F046FCA2
:109CC00047F2305007F0D1FFCF2006F06DF806F0D4
:109CD00057F94FF47A7007F0C8FFD02006F064F807
:109CE00006F04EF94FF47A7007F0BFFFD02006F06F
:109CF000BBF806F045F9C7E705F0B8FD0028DCD150
:109D0000C2E738BD5C4B0020F513002070B50F4D45
:109D10001024012655F8040B431C12D000F00F014B
:109D2000012206FA01F120F00F0009F001FC55F8BC
:109D3000043C23F00F0203F00F0306FA03F39BB277
:109D40005383013C14F0FF04E4D170BD4C0C00209F
:109D500008B5044B00221A7006F0DCFC024B1860B8
:109D600008BD00BF021400200414002008B50448F8
:109D70002022012109F0DCFBBDE80840FFF7E8BF25
:109D800000040240024A00231370024A1360704725
:109D90000214002004140020024B1869C04300F094
:109DA000010070470004024001282DE9F0410446FB
:109DB0006AD8204600F05EF90646002868D036488A
:109DC00008F039FB302585F311883448022201213F
:109DD00009F01AFC002484F3118885F311882F48B8
:109DE0000322214609F010FC84F3118885F31188C1
:109DF0002B4803220A2109F007FC84F3118885F31C
:109E0000118827480322092109F0FEFB84F31188F9
:109E1000244FA04657F8043B01330CD085F311883A
:109E200057F8040C032200F00F0120F00F0009F096
:109E3000EBFB88F311880134E4B2062CEAD1FFF77A
:109E400065FF17484022202109F072FB402211468D
:109E5000134809F06DFB12484022802109F068FB8D
:109E60000F4840224FF4805109F062FB0C48402219
:109E70004FF4006109F05CFB09484022082109F019
:109E800057FB00F061F904E0FFF786FF002890D04F
:109E900000263046BDE8F0815C4B00200004024003
:109EA000000002408C0C0020F8B5694C26784EB9B1
:109EB000684D286806F070FCB0F57A7F82BF0123F8
:109EC00023702E60FFF768FF40B1634D2B78012BA4
:109ED00004D106F0D7FE284606F042FFFFF7C8FE81
:109EE000022840F0A4802378002B00F0A580FFF723
:109EF000E9FA002840F0A08001F084F9002800F081
:109F00009B8004F0AFFF002840F0978053495448ED
:109F10000C220AF0CDFF002840F08E800220FFF7CF
:109F200043FF002800F08880022000F0D3F84D485D
:109F300040F21A524FF4006109F0FAFA494840F22F
:109F40001A524FF4805109F0F3FA464840F2822247
:109F5000202109F0EDFA434840F28222402109F025
:109F6000E7FA404840F28222802109F0E1FA07F046
:109F7000A7FF05F07FFD00F0C9FC3B4B1B680BB150
:109F80000120984700F0D8F80024384D30262746A5
:109F900055F8043B01330BD086F3118855F8040CB7
:109FA00000F00F0120F00F0009F060FB87F311882B
:109FB0000134E4B2062CEBD1302585F311882C480E
:109FC000012109F053FB002484F3118885F31188E3
:109FD00024480A2109F04AFB84F3118885F311888B
:109FE0002048092109F042FB84F3118885F3118888
:109FF0001F48214609F03AFB84F31188FFF7CCFE95
:10A0000020B106F03FFE144806F0AAFE02F02AFF37
:10A0100002F0C8FE03F020FE012005F00DFDFFF761
:10A0200097FEFEF72BFC002000F024F804E0FFF779
:10A030001FFE04283FF457AFF8BD04F013FF0028BB
:10A04000FAD005F0B5F800287FF460AFF4E700BF60
:10A0500002140020041400205C4B0020F6130020A2
:10A0600018480020000002401C0C00208C0C00202E
:10A07000000402400228144903460BD003281AD0DA
:10A08000012815D10A78EAB91048026922F00402C1
:10A0900002610DE00A78AAB90C48026942F0040294
:10A0A00002610B48026842F4606242F00102026001
:10A0B00001200B7070470A7822B90448026942F007
:10A0C0000402E5E70020F4E70814002000ED00E0BA
:10A0D0000070004038B5144B9A6822F003029A6071
:10A0E0009A6812F00C0FFBD11A6822F480321A60C1
:10A0F0000D4A13689B03FCD40C484022012109F04F
:10A1000017FA0A484022022109F012FA30BF084A21
:10A11000084C1369102523F004031361658308F0CC
:10A1200017FE258338BD00BF00380240001C0240E6
:10A1300000ED00E000000240024820224FF40051F0
:10A1400009F0F6B900040240704702210520FEF72D
:10A15000CBBE000010B548B340F2234303FB01F42B
:10A1600040F2F313B4FBF3F4A4B204F07BFED0B1DD
:10A17000002212491346013211F8010BD2B2C02A53
:10A180000344F8D10E490022013211F8010FD2B276
:10A19000C02A0344F8D13C2253434FF20D22B3FBB3
:10A1A000F2F323449CB2074B1C8010BD40F6E443FD
:10A1B00003FB01F4A40A6400D6E700BFB148002005
:10A1C00070490020A40C0020134B1B8841F20402AC
:10A1D00093421DD840F6AC5293420CD950225343BF
:10A1E000A3F58823A3F5B8634FF41672B3FBF2F01E
:10A1F0001430C0B2704740F6E44293420AD91422A8
:10A2000002FB03F0C823B0FBF3F0A0F5A570F0E764
:10A210006420704700207047A40C0020034B18787E
:10A220000A2894BF00200120704700BF0B140020B3
:10A23000034B1878142894BF00200120704700BFFA
:10A240000A14002008B50B4B1A8840F6AB539A420B
:10A250000ED8094A13780A2B0AD80133DBB20B2B2C
:10A26000137005D10120FFF74FF9044B0F221A702C
:10A2700008BD00BFA40C00200B140020091400200E
:10A280000A490B4A0888137840F6E341884208D807
:10A29000142B0AD80133DBB2152B137005D1FEF74E
:10A2A0006DB9142B9CBF002313707047A40C0020C1
:10A2B0000A14002070B52A4E306800F05BF904469D
:10A2C000FFF7D6FC10F0060F38D0FEF7B3FA0328DC
:10A2D000244D02D02B780E2B30D8FFF75DFD58B1FE
:10A2E00040F6B8339C4207D91F4B1B699B0454BFEF
:10A2F00001200220FEF712FE2B780E2B12D8FFF75A
:10A30000C7F878B9C82C19D9FFF79CFFFFF7B8FF39
:10A3100000F022F9154B984208D90023336000F071
:10A320000BF904E040F6B8339C42ECE73060FFF7ED
:10A330000CFF2B780E2B9CBF01332B700C4D0D4C5A
:10A340002B782278134309D0FFF726FD30B1002087
:10A3500028702070BDE87040FFF7D6B870BD00BF10
:10A360000C1400200914002000040240005C2605A3
:10A370000B1400200A14002010B50446FFF776F8ED
:10A380000B4B01221A700B4B1C7006F0C3F90A4BE1
:10A3900018600A4B00221A70094B96221A60094A6B
:10A3A000FF231370084A1370084A137010BD00BFD2
:10A3B00020140020191400201C1400201814002060
:10A3C0001414002010140020111400201214002076
:10A3D000024B1878003818BF012070472014002065
:10A3E0002DE9FF4117490A2201A80AF0C0FD002407
:10A3F000002320461A461946013403F0CBFC522CA8
:10A40000F6D1114B1B7803F0FD03012B0CD10F4E3D
:10A410000F4FDFF8448001AC00250A223378B3FBEC
:10A42000F2F3EAB2934202D804B0BDE8F0810949E0
:10A430003B7898F80020097814F8010B03F0AAFC87
:10A440000135EAE7F45B010820140020181400200D
:10A4500010140020121400201114002010B5214AFD
:10A460001378022B16D0032B2CD0012B07D11E49B9
:10A470001E480B780078984206D90A330B7006F014
:10A4800049F91B4B186010BD0BB90A230B7002234E
:10A490001370F4E7154B17491B78174C1D2B174BFE
:10A4A0000AD8FF200870002119702170144B40F663
:10A4B000B83119600323EBE700200870FF212070FA
:10A4C0001970F3E700231370FEF7EAFF0D4B5B7C76
:10A4D00023B904F0C7FC08B9FEF7D1FFFFF738FC39
:10A4E000CDE700BF2014002018140020191400200C
:10A4F0001C1400201214002010140020111400203D
:10A5000014140020F047002008B5084B1B785BB1FD
:10A51000074B186806F040F9064B1B68984203D9B0
:10A52000BDE80840FFF79ABF08BD00BF2014002017
:10A530001C1400201414002007B5002304486946A9
:10A54000CDE9003307F0D8FE03B05DF804FB00BF8F
:10A55000BC4B0020FFF7F0BF07B50548694607F080
:10A56000CDFE019820F0784003B05DF804FB00BFF9
:10A57000BC4B002010B50446FFF7EEFF001B10BDDA
:10A5800038B547F60E63984204460D4631D006D8DA
:10A59000A0F5FC430B3B022B13D9012038BD47F635
:10A5A0000F639842F9D1FFF763FB10F0060FF4D068
:10A5B000FFF7F2FB0028F0D1FFF706FEFFF7DCFE05
:10A5C000EBE7FFF755FB0228E7D16B795BB1104D44
:10A5D0000A3C2C7006F09EF80E4B0021186028787B
:10A5E000FDF742FFD9E70A4A00231370094A1360B6
:10A5F000D3E7FFF73DFB0428CFD16B79002BF2D0D6
:10A60000034B18221A7006F085F8024B1860C4E755
:10A61000281400202C1400207FB51B48FEF7B2FC44
:10A620004FF4967007F021FB002111220DF1050077
:10A630000AF04EFC154A02238DF800301388127878
:10A640008DF801201B0A8DF802306FF04B038DF856
:10A65000033000238DF804300523ADF806305A236B
:10A660008DF8083001238DF80B3043F23443ADF8F8
:10A670000C30684640F61313ADF80E30FEF766FC5A
:10A6800007B05DF804FB00BFFF5B0108140C00205D
:10A69000FFF7C2BF10B5094C237873B106F03AF842
:10A6A000B0F57A7F09D2FFF7B7FFFFF7E1FA02288A
:10A6B00001D1FDF731FE0023237010BDA60C002050
:10A6C00010B5084C206858B106F066F8B0F5FA6F7E
:10A6D00006D9002121600846BDE81040FDF704BE00
:10A6E00010BD00BF2C14002038B5284C2068E8B9F4
:10A6F000274A136911691B0AC1F3802103F0020381
:10A700000B432449087883420CD0136912691B0A51
:10A71000C2F3802203F0020313430B7005F0FAFF2B
:10A72000206018B9FFF7A4FA20B138BD06F034F85C
:10A730006428F7D9164A17481369116905781B0A66
:10A7400003F00203C1F380210B43AB4210D100227E
:10A75000022B226008D0032B08D0012BE5D1022068
:10A76000BDE83840FFF716BA0420F9E70120F7E703
:10A77000136912691B0AC2F3802203F00203134318
:10A78000037005F0C7FF2060CFE700BF241400204E
:10A7900000000240211400200120704738B5044613
:10A7A0000D46FEF74DF808B9002038BD2946204671
:10A7B00000F0E4F80028F7D029462046FFF7ECFF28
:10A7C000F3E708B5FEF7FEFE00F062F9012008BDD0
:10A7D00008B5FFF748F900F091F900F07DF800F0B6
:10A7E000F9FC08BD38B504460D4600F019FD28B146
:10A7F00029462046BDE83840FFF7D0BF38BD10B528
:10A8000003F0DBFB044608B1FFF7DBFF204610BD79
:10A81000FFF7DEBFC0B205F0E3B80000A0F5FC43CF
:10A8200070B50A2B4DD8DFE803F013131313060C91
:10A830002A2A2A2A17004B79C1202BB100F090FE5A
:10A8400004E04B79C220F8E700F0D2FE002070BD92
:10A850001D4BC05C4B79F0E74B79002BF6D01B4BBE
:10A860001A783AB90122E3201A7000F079FE2C2000
:10A8700000F076FE05F04EFF154B1860E6E74D79C7
:10A88000144CA0F5FC400638ADB914F8206004EB78
:10A890008004EBB29E42D9D923440135587800F0A8
:10A8A000A7FEF6E723440135587800F059FEEBB2D5
:10A8B0009E42F7D8CAE714F82060002504EB800414
:10A8C000F5E70120C3E700BFB5DF0008341400201E
:10A8D00030140020A55D010838B50A4D2B787BB1F6
:10A8E000094C206805F058FFB0F5FA7F08D9E3203D
:10A8F00000F07EFE2C2000F07BFE00232B702360F6
:10A9000038BD00BF341400203014002038B5302585
:10A9100085F31188114803220F2108F075FE0024E9
:10A9200084F3118885F311880C4803220E2108F066
:10A930006BFE84F3118885F3118809490948224682
:10A9400007F0C6FC84F3118885F311880449064892
:10A95000224607F0BDFC84F3118838BD0004024094
:10A9600015A800080F0402400E04024008B505F0C7
:10A97000D1FE014B186008BD401400204D2810B5D1
:10A980006CD007D81D2844D04A2867D00D2824D081
:10A99000012010BD20F0020345F2212293420ED087
:10A9A0004F28F5D14A79002A50D0354A1378002B28
:10A9B00042D00133DBB2042B88BF012305E0314ACA
:10A9C0004979137819B143F001031370E0E723F0DC
:10A9D000010313702C4B1960DAE72A4C4A7923786B
:10A9E0005AB143F00203072B237001D1FFF7BEFFDA
:10A9F0002078C04300F00100CBE723F0020323706E
:10AA0000214B1A60214A13789807C1D523F002031D
:10AA1000DBE71C4C4A79237812B143F00403E2E7E8
:10AA200023F004032370184B1A60184A137859074F
:10AA3000AED523F00403C8E7124A137843F00803A5
:10AA4000192B1370A4D1FFF791FFA1E70D490B78E3
:10AA500023F008030B700C4B1A6099E74A7952B146
:10AA6000074B1A7812B100221A7091E7054A137841
:10AA700043F01003E4E703490B7823F01003E9E700
:10AA80003C1400203D140020401400203514002008
:10AA900008B5144B1878144B50B1C043002240F352
:10AAA00000001A701146C0B203F07EF9002008BD04
:10AAB0001B78ABB1013B032BF8D8DFE803F00206AB
:10AAC0000A0DFF2211461046EEE700221146FF2034
:10AAD000EAE70022FF21F6E70021FF220846E3E72C
:10AAE0000120E4E7371400203C140020024B1868D2
:10AAF000003818BF012070473814002070B52B4D66
:10AB00002B4C286888B305F047FE40F6B8339842CE
:10AB10002BD900262E60274D2B78072B36D105F038
:10AB2000F9FD254A2060137801331370234B1E7002
:10AB300000F0E0FF224B1E8801F066FD01F002FDEF
:10AB4000204B1880304601F026F804F08BF908B944
:10AB500004F09CFA04F044F941F2883007F085F8DB
:10AB60000020FEF72FFA00232B70206860B105F05B
:10AB700013FEFA2808D9104B1A78511C062A1970AE
:10AB80000FD900221A702260012070BD192BEAD162
:10AB900004F068F908B904F079FA0B4B01221A7035
:10ABA000E1E705F0B7FD2060EEE700BF40140020AC
:10ABB000381400203D1400203714002035140020E4
:10ABC000C81400200A4800203C14002030B589B089
:10ABD00004460D462022002168460AF079F9AB238D
:10ABE0002A4621460DF101008DF800300AF0BFF928
:10ABF00069460122002311F8010F0132D2B2034449
:10AC00001D2A9BB2F7D120216846ADF81E3006F010
:10AC100005F909B030BD000010B50378AB2B88B042
:10AC200022D1024600F11C01002312F8014F2344F7
:10AC30008A429BB2F9D1817FDAB2914214D1C27FAC
:10AC4000B2EB132F10D14378013B082B0CD8DFE86F
:10AC500003F0050D0B142A0B3C4468003D4B827831
:10AC60001A703D4B00221A6008B010BD83783B4A31
:10AC7000003B18BF01231370F6E78378A12B07D0A0
:10AC8000A22BF1D1C178364B102251B11A83EBE7D8
:10AC9000C078003818BF012008B0BDE81040FEF7AA
:10ACA000B1B95A83E0E705238DF80030FEF7E0FFE5
:10ACB0002C4B8DF801001B6903F001038DF8023065
:10ACC00003216846FFF782FFCEE780784E28CBD875
:10ACD00008B0BDE81040FEF7ADB947F20863102296
:10ACE0000DF102010120ADF800302E2409F09FFF84
:10ACF000102201A900208DF8034009F098FF1022CE
:10AD00000DF1060100208DF8054009F090FF16496D
:10AD10002023142202A88DF807300AF028F91C21FC
:10AD2000CFE740F609431149ADF8003004220DF198
:10AD300002000AF01CF90E4904220DF106000AF087
:10AD400016F90C4904220DF10A000AF010F90E213F
:10AD5000B7E700BF3C140020401400203614002048
:10AD600000000240000402400F5C0108107AFF1F3F
:10AD7000207AFF1F307AFF1F084B1B7807B54BB1B5
:10AD80004FF481738DF8061001A80321ADF804304B
:10AD9000FFF71CFF012003B05DF804FB3614002010
:10ADA00038B509220023012504468370C57002715D
:10ADB000044905300AF0DBF80223A373E573257418
:10ADC00038BD00BF235C010838B54378032B044627
:10ADD00004D0042B0DD0FF23037007E0094D01229E
:10ADE0002521284602F096F92B78E3700023A37002
:10ADF00038BD0448A37803700122252102F042F9EE
:10AE0000F4E700BF4414002008B505F083FCC0F34C
:10AE1000802383F001035B42C0F388005840C043A5
:10AE2000C0B208BD10B50446052942D8DFE801F0DC
:10AE3000310B03183B2600236422FF212046BDE886
:10AE4000104002F0A7BFFFF7DFFFAA2110FB01F1BE
:10AE5000C0EB0023C1F30721C3F307230022EDE772
:10AE600005F058FC4FF4FA73B0FBF3F3DB4313F037
:10AE700001031BD0FF233C220021DFE705F04AFC41
:10AE8000FA23B0FBF3F1C94341F30001C9B2002337
:10AE9000E4E772B9FFF7B8FF00EB4000C0F3071119
:10AEA0000B460A46CAE73C23FF22E5E71A46194645
:10AEB000C4E710BD014B1878704700BF8214002012
:10AEC00030B50C4B1B7889B005460C4683B1002188
:10AED0001D220DF1030009F0FBFF812320216846AC
:10AEE0008DF800308DF801508DF8024005F096FF86
:10AEF00009B030BD8214002070B5037888B00446D4
:10AF00000D46042B55D8DFE803F0031622434A0010
:10AF100000211F220DF1010009F0DAFF80238DF8D6
:10AF20000030202140F601436846ADF8023005F0BC
:10AF300075FF08B070BD5B4B42781A7000235A4A07
:10AF4000194602F8231001330C2BFAD1F1E74278AD
:10AF500085782179C078FF2A0CD1534B0022012437
:10AF600001320C2A1C705D709870D97003F10403D3
:10AF7000F6D1DEE7013AD3B20B2BDAD84A4B0124E3
:10AF800003F8224003EB82035D709870D970D0E71C
:10AF90004378464A003B18BF01231370C9E7427843
:10AFA000531E0B2BC5D8424B1344827803F8012C57
:10AFB000BFE7A03B0B2BBCD801A252F823F000BF87
:10AFC000F1AF000809B0000843B000084DB0000818
:10AFD00033AF000833AF000833AF000859B00008A2
:10AFE00033AF000833AF000891B000089BB00008F1
:10AFF0000223002243708270C3702946204608B0A5
:10B00000BDE8704005F00ABF76234370811C2E26F0
:10B010001022012009F00BFE211DE67010220020F5
:10B0200009F005FEA11D66711022012009F0FFFD47
:10B0300020232049E371142204F1080009F097FF4E
:10B04000DBE70023437007238370D6E71A4B188889
:10B0500000F013FA6070D0E74378022B15D006D8C1
:10B06000012B0AD0FF23237000236370C5E7033B45
:10B07000012BF7D8FFF7A8FEBFE700238370022259
:10B0800003711323C2704371B7E7FFF789FEB4E77A
:10B0900008B0BDE87040FEF787B908B0BDE8704061
:10B0A000FFF7BABD8114002045140020821400204F
:10B0B000751400200F5C0108C8140020014B002209
:10B0C0001A707047821400202DE9F0410F460646A1
:10B0D00028B921B1134B01221978FFF7A3FE124CB6
:10B0E000DFF848800F25E8B2864209D8874207D9A1
:10B0F00022787AB1E378A2786178284602F04AFE95
:10B1000001351B2D04F1040408F10108EBD10120E5
:10B11000BDE8F08198F80010FF29F1D0FFF782FE1A
:10B12000EEE700BF811400204514002075140020B4
:10B1300008B50C22FF21084809F0CAFE0023074980
:10B140001A4601F8232001330C2BFAD1044B1A7054
:10B15000044B1A7008BD00BF751400204514002070
:10B16000811400208214002038B50D46044628B909
:10B1700000290CBF0420012000F00DFD29462046C7
:10B18000FFF7FAFD012038BD08B50F4800224FF443
:10B19000806108F0CDF94FF400710B48002208F0EF
:10B1A000C7F90A4B4FF480521A830020FDF746FC82
:10B1B000FDF786F805F0AEFA054B1860FFF7A6FB21
:10B1C000BDE80840FFF7B4BF0000024000040240A1
:10B1D0008414002010B5094C206860B105F0DCFA39
:10B1E00040F6B8339842064B4FF4805285BF002199
:10B1F00021601A835A83012010BD00BF84140020EF
:10B200000004024008B5054B1B682BB9FFF76EFC24
:10B2100080F00100C0B208BD0020FCE784140020CB
:10B2200038B5A0F5FC43103B0D46102B17D8DFE8CE
:10B2300003F0131313131313131313131313091E10
:10B240001C1A20000024FFF735FE18B1697920464A
:10B25000FFF736FE002038BD0C38C4B2F3E7BDE876
:10B260003840FFF7DBBA0324EDE70224EBE70124C3
:10B27000E9E71024E7E7000004280CD805290AD8DC
:10B280000F2A08D8062303FB001102EB0112034B1F
:10B2900033F8120070470120704700BF125F0108A9
:10B2A000FFF7EABF042808D839B982F00102044B3D
:10B2B00002EB400033F8100070470120704700BFD8
:10B2C000FE5E0108FFF7EEBF0120704708B5FFF7EB
:10B2D000FBFF08BD01207047704708B5FFF7FCFF72
:10B2E00008BD000013B502AB03E903000F4B1B7848
:10B2F000B3B99DF8053073B16AB100F023FD04467F
:10B300000146009800F0E2FC0099204602B0BDE83A
:10B31000104001F04DBB009800F0F8FC0446F3E744
:10B32000009800F00FFD0099F0E700BF9014002096
:10B33000034610B400885C880A4640EA04409988B5
:10B340005DF8044BFFF7CEBF10B501210446FFF7AF
:10B35000EFFF2146FFF7BAFF10BD10B500210446EC
:10B36000FFF7E6FF2146FFF7B8FF10BD0120704749
:10B3700008B5FFF7FBFF08BD10B5044600F0BAFBA7
:10B380002046FFF7F5FFBDE8104046F2A81006F092
:10B390006CBC08B50120FFF7EFFFBDE8084005F0E1
:10B3A0002DBA08B50020FFF7E7FFBDE8084005F01B
:10B3B0002ABA38B501210546FFF7BAFF29460446E7
:10B3C000FFF710FAB0B32946204604F031FF88B3E6
:10B3D0002946204604F082FB60B32946204604F04B
:10B3E00057FB38B32946204604F070F910B36B7947
:10B3F0007BB147F65A439C4223D00ED847F601430F
:10B400009C421BD047F603439C4215D0B4F5F84F3D
:10B410000ED02846FFF75EFF0DE047F65B439C42E7
:10B4200012D047F65C439C42F3D101F05FF8F0E79D
:10B43000FFF7AFFF002038BD01F06AF8FFF7B1FF5A
:10B44000F8E701F05FF8E4E701F05FF8E1E708B53D
:10B4500005F00AF903F0DAFE00F02FF8BDE8084025
:10B46000012003F067BF08B500F02CF8002003F0BE
:10B4700061FFBDE8084005F0FCB8030A0ABF0346B7
:10B48000082000201A091EBF04301346C0B29A08D3
:10B490001EBF0230C0B2134600EB5300C0B270476B
:10B4A0007047012070477047704710B50446FFF79A
:10B4B000F7FF2046FEF7ACFA10BD08B50020FFF7F5
:10B4C000F4FF08BD08B504F00DFFFFF7EEFF08BD5F
:10B4D00010B504F007FF074B1A788242044607D0E4
:10B4E000187005F017F9044B18602046FFF7DDFFD0
:10B4F00010BD00BF881400208C1400201FB5CDE9BA
:10B5000000019DF805306C460BB100F0FBFE0023F6
:10B51000ADF80E3094E80300ADF80C10C9B20290FB
:10B5200002AC29B994E8030000F006FE04B010BD97
:10B530002046FFF709FF0028F4D1F7E70379012B34
:10B5400002D1008800F020BC704708B529B104F092
:10B550002BFCBDE8084004F013BD04F085FCF8E7BF
:10B5600010B50446002840D0031FDBB2A02B0ED834
:10B5700004F01CFF20B1204604F0DAFF00F048FF81
:10B58000204604F0BDFFBDE8104000F041BF00F1CF
:10B590002003DBB2072B07D800F007040120A040EE
:10B5A000C0B200F063FEEEE700F15B03DBB2022BFA
:10B5B00005D82438BDE8104080B204F0BBBE00F1CD
:10B5C0005803DBB21A2B06D8084ABDE8104032F8FF
:10B5D000130004F0C7BE3334E4B2122C05D804F0D3
:10B5E000E3FBBDE8104004F0CBBC10BDD262010803
:10B5F00008B50346A0B3021FD2B2A02A05D804F0B2
:10B6000097FFBDE8084000F003BF00F12002D2B26E
:10B61000072A07D800F0070301209840C0B200F0C5
:10B6200033FEEEE700F15B02D2B2022A04D8BDE895
:10B630000840002004F07EBE00F15802D2B21A2A5F
:10B6400004D8BDE80840002004F08CBE3333DBB2E0
:10B65000122B05D804F008FCBDE8084004F090BCAB
:10B6600008BD38B505460C46FFF77AFF1CB92846D9
:10B67000FFF7BEFF38BD6420013C06F0F6FAA4B225
:10B68000F4E708B539280CBF50210021FFF7E9FF86
:10B6900008BD08B528B100F0E9FDBDE8084000F09C
:10B6A000B7BE08BD08B528B100F0EEFDBDE8084002
:10B6B00000F0AEBE08BD00002DE9F843877945795A
:10B6C00080460C4600F0A4FD3F09064608B32E460E
:10B6D000FDB1C4F3072303F0F002402A0CD0E1B21D
:10B6E00001F12002D2B2072A25D903F0E003202B72
:10B6F00002D101291FD907B3A54B5E7816F00406C5
:10B7000007D0022000F0C2FE00F082FD80F00106AA
:10B71000F6B2C4F303330B2B3DD8DFE813F010006F
:10B72000100054005400AE00C5003C003C00CA00AC
:10B730002D01420142010026EBE73E46E9E7C4F352
:10B740000723C4F303270F2B88BF3F01E4B285B161
:10B7500057B104F12003DBB2072B384600D92CB9CE
:10B7600000F084FD00F054FE20464CE000F0ACFDFB
:10B77000F8E72046FFF73CFF6FB104F12003DBB28E
:10B78000072B384600D914B900F07EFD01E000F027
:10B79000A9FD00F03DFE002E00F05F8100F030FDBD
:10B7A00010F0010040F0598188F8050000F022FDFA
:10B7B00000F024FA404600F067F900F01BFDBDE8F8
:10B7C000F84300F027BAC4F3072303F0F003C4F3EF
:10B7D0000329202BE4B218BF4FEA09192CB1012C20
:10B7E00034D0002D3CD0DFB1BEE7694B5B78580701
:10B7F00014D45DB1B9F1000F04D0484600F036FD15
:10B8000000F006FE0020FFF7ABFEC4E72846FFF776
:10B81000EFFEB9F1000FBED04846B5E755B11FB9EC
:10B820004846FFF736FFB6E7012FB4D1484600F08F
:10B8300093FDB0E7002FAED14846FFF733FF4846EF
:10B8400000F098FD484600F073FDA4E715B1052F00
:10B85000A1D8E5E7042F9ED84846FFF723FF9AE7D3
:10B86000002FF9D0392C0CBF4FF4FA50012006F00C
:10B87000FCF92046FFF7BCFE8DE714F4406FC4F3DB
:10B88000812307D0012B86D165B1C4F3090004F0F0
:10B8900069FD80E725B1C4F3090004F04BFD7AE7A8
:10B8A0002846FAE72846F2E72946E0B2FFF74DFEC0
:10B8B00071E714F4407F2DD1F5B9C4F34213E106CA
:10B8C0004FEA830348BF0F25DBB248BF9D4004F019
:10B8D0000F0248BFED4302FA03F2C4F3812448BFCC
:10B8E000ADB292B2022C45EA02000DD0032C0ED06C
:10B8F000012C06D000F05AF904F0F4FCFFF7D5FD56
:10B9000049E700F04BF9F7E700F058F9F4E700F0E9
:10B9100042F9F1E7C4F3012215B3D207ECD5C4F321
:10B92000421314F010004FEA8303DBB21CBF0F2058
:10B93000984004F00F0202FA03F218BFC043C4F3A8
:10B94000812414BF83B2034692B2022C43EA020060
:10B950000CD0032C0DD0012C05D000F079F9CBE7E9
:10B96000012AC9D9DBE700F06BF9C5E700F078F9E7
:10B97000C2E700F031F9BFE7E7B2C4F303244DB1E9
:10B98000204600F03BF93846FFF783FEB4E700BFDE
:10B990000A4800203846FFF785FE204600F03AF9B5
:10B9A000AAE75FFA84F9A9F1F003042B3CD8DFE899
:10B9B00003F003210D141D0035B1042F9CD8C4F3EE
:10B9C000042000F031F997E7052FF7E7C4F30420CE
:10B9D000002DE3D100F012F98EE725B1C4F3042065
:10B9E00000F005F988E700F0FFF885E71C4B5B786D
:10B9F0005B0704D4C4F30420002DCFD0EAE74DB197
:10BA0000C4F30424204600F0F9F80321204600F096
:10BA10001BFD71E7012000F039FD012F7FF66CAFAF
:10BA2000022000F033FD67E73DB11FB14846FFF744
:10BA300097FD61E7C4F30420CCE75FB1B9F1390F9A
:10BA40000CBF4FF4FA50012006F00FF94846FFF7FB
:10BA5000CFFD51E7C4F30420A0E7BDE8F88300BFA1
:10BA60000A48002038B501880446407900F098F96A
:10BA7000054600F0FDF800F08DF829462046BDE8A7
:10BA80003840FFF719BE0000037910B50446B3B182
:10BA9000FFF78FFC68B900F0BBFB80B1637973B12D
:10BAA000074B5B785B070AD5BDE81040022000F029
:10BAB000EDBC2046FFF7D6FF2046FFF74EFC10BD39
:10BAC0000A48002008B5002004F034FC002004F0EF
:10BAD00049FC00F017FC00F09BFC04F06DFABDE897
:10BAE000084004F04DBA08B504F042FDBDE8084036
:10BAF000FFF7E8BF08B500F0D7FBBDE80840FFF747
:10BB0000F2BFC0F30333062BC2B213D094BF0E337F
:10BB1000063303F00F03012B13D8F02A13D004D8F7
:10BB2000E72A8CBF002001207047A2F1F40358429D
:10BB300058417047F12A18BFE72A94BF012000201E
:10BB40007047002070470120704708B50346007910
:10BB500030B1188800F018F9BDE80840FFF7D1BFF0
:10BB600008BD82B002AB03E9030002B0704782B0A7
:10BB700002AB03E9030002B07047704708B5FFF756
:10BB8000FCFF08BD08B5FFF7F9FF014B188008BDA1
:10BB9000C81400207047FFF7F5BF0000024B1B8858
:10BBA0001843FFF7EFBF00BFC8140020024B1B88EB
:10BBB0001840FFF7E7BF00BFC8140020024B1B88E6
:10BBC0005840FFF7DFBF00BFC8140020704708B51A
:10BBD000FFF7FCFF08BD000008B5FFF7F8FF014BB9
:10BBE000188008BDC61400200020FFF7F5BF012310
:10BBF00003FA00F080B2FFF7EFBF0000012303FA61
:10BC000000F0034B1B88184380B2FFF7E5BF00BF6D
:10BC1000C6140020034A01238340108820EA030051
:10BC2000FFF7DABFC6140020012303FA00F0034B2C
:10BC30001B88584080B2FFF7CFBF00BFC61400205A
:10BC4000024B1B881843FFF7C7BF00BFC614002074
:10BC5000024B1B881840FFF7BFBF00BFC61400206F
:10BC6000024B1B885840FFF7B7BF00BFC614002027
:10BC7000704701F0070330B5C908012402EB8102C7
:10BC80009C40E4B2013A002112F8015F20FA01F36E
:10BC900043F300036B40234001315D4004291570DC
:10BCA000F2D130BD10B5002200F00704C00801EB4E
:10BCB000800110468B5CE34003F0010393400132A6
:10BCC0001843042AC0B2F5D110BD000017B40C46C9
:10BCD000C1B2C0F3072005280AD80F290ED8094A97
:10BCE00001EB0011204603B05DF8044BFFF7C1BF24
:10BCF000031DDBB2012B01D8034AF3E703B05DF863
:10BD0000044B70479514002091140020C3B2C0F377
:10BD10000720052882B007D80F2B0CD8074903EB62
:10BD2000001002B0FFF7BEBF0430C0B2012802D835
:10BD300003491846F5E7002002B07047951400202B
:10BD4000911400200E4B73B51D880E4BADF8040006
:10BD50001B881D43ADB20F2445FA04F3DB0705D45D
:10BD6000013CF9D20026304602B070BDE6B201991E
:10BD7000304600F03AFE80B20128F1D0F3E700BF70
:10BD8000C6140020C814002007B5ADF804000198BF
:10BD9000FFF7D8FF019903B05DF804EB00F025BE72
:10BDA00013B5104BADF804101B782BB1019802B0FD
:10BDB000BDE81040FFF7E8BF70B10198FFF7C2FF80
:10BDC000044601460198FFF781FF0199204602B021
:10BDD000BDE8104000F009BE0198FFF797FF044648
:10BDE000F3E700BF90140020F8B50C4B0C4E1C7804
:10BDF0000C4D3378A34200D1F8BD05EBC40335F8F0
:10BE000034005F889A88D98840EA074042EA0141B5
:10BE10000134FFF7ACFE04F00704EAE7CA1400207F
:10BE2000CB140020CC140020064B10B418885C887A
:10BE30009A88D98840EA044042EA01415DF8044BFF
:10BE4000FFF795BE0C150020194AF8B593790F2B12
:10BE50000AD8537943B1174B17491B780D781688C8
:10BE60005788164CAB4200D1F8BD04EBC3010879EA
:10BE7000D0B134F83300B04216D14879A0B948881F
:10BE8000C01B80B2C7280FD89379012060F3071335
:10BE900093718B7960F3071305488B71FFF7F4FDFD
:10BEA000BDE8F840FFF7A0BF013303F00703D9E76F
:10BEB0000C150020CA140020CB140020CC14002044
:10BEC000F0B50D4B0D4C1B7826780D4CB34201D1CB
:10BED0000020F0BD04EBC3056F788F4206D114F843
:10BEE0003370874202D16D79954203D1013303F05B
:10BEF0000703EBE70120ECE7CA140020CB14002075
:10BF0000CC1400202DE9F0438A4D85B0044606226A
:10BF10000146684609F02BF82B7967792279C3B975
:10BF2000002A00F0CC80002F00F0FB802046FFF7B5
:10BF30000CFE002800F0F58008222146284609F072
:10BF400016F82846FFF7FAFAFFF77EFFFFF76CFFB7
:10BF5000B5E0B4F802906B886E79A9EB03039BB24D
:10BF6000002E00F0AE80C72B00F28780002A00F080
:10BF7000A680AB792A8821880F2B51D8914211D104
:10BF8000002F48D1012262F30713AB71FFF74CFF7A
:10BF90002846FFF779FDAB79A3710025284605B047
:10BFA000BDE8F083002F36D1257861783A462846DF
:10BFB000FFF786FF2846FFF783FF05460028ECD1F0
:10BFC0000098FFF7E1FEC0F30332032AC3B208D89A
:10BFD000012A10D910F4706F12D0A2790F2A0FD84D
:10BFE000DCE7063202F00F02012A0ED92046FFF7E5
:10BFF0004BFD3546D2E710F4706F01D0002BCDD049
:10C000002033DBB2072BC9D9F0E7EF2BC6D90F33AA
:10C01000DBB2022BF7E7AB7943F00103AB71BCE76E
:10C0200091420AD14FB92046A371FFF72DFD082296
:10C030002146284608F09BFF88E72046FFF785FD4C
:10C0400000286ED0002F6CD0AB791F2B0FD92A8817
:10C05000ADF808202A798DF80C2002A80022ADF84E
:10C060000A908DF80D208DF80E30FFF70DFD082297
:10C070002146304808F07BFF66E7AB790F2B0ED8DE
:10C08000DDE90001FFF76DFD2846FFF7FDFC082202
:10C090000021284608F01CFFFFF7C6FE7DE772B1BD
:10C0A000298822889142C8D1002FC6D12046A37189
:10C0B000FFF7EAFC08223946284608F009FF012567
:10C0C0006CE7C72B31D8002AF9D057B32A882388C8
:10C0D0009A421DD1AB79DA0714D40F2B12D9A37170
:10C0E00003F0F003F02B06D0A379C3F3031201325F
:10C0F00062F30713A3712046FFF7C6FC0D48082220
:10C10000214697E7082221460A4808F030FFD6E783
:10C110002046FFF71AFD0028A9D1AB7943F00103AF
:10C12000AB712046FFF7B0FCC9E7DDE90001FFF77E
:10C1300018FDACE70C150020F0B585B0CDE9000185
:10C140006846FFF7DFFE274F9DF80420264D064680
:10C1500058B11AB1DDE90001FFF709FD234C287839
:10C160003B78834224D105B0F0BDDDE9000102AB8C
:10C1700083E80300002AF1D038782A78441C04F0C0
:10C18000070494420AD01946184B082203EBC0005A
:10C1900008F0EDFE3C70FFF727FEDFE7FFF7AAFC93
:10C1A0000822314612483E702E7008F091FED5E705
:10C1B00004EBC000FFF7A6FE0028D4D02B7834F89B
:10C1C000330004EBC3035E889A88D98840EA0640AE
:10C1D00042EA0141FFF7CBFC2B78013303F0070360
:10C1E0002B70BCE7CB140020CA140020CC14002014
:10C1F0000C150020014B1878C00870473C15002032
:10C20000024B187800F00700704700BF3C15002073
:10C21000034B187810F0070018BF0120704700BFCB
:10C220003C1500200B4B0C4910B51C682022204601
:10C2300008F03EFE38B108482022214608F097FE5B
:10C24000204604F063F8054A137823F002031370C4
:10C2500010BD00BFFC0D0020141500200848002070
:10C26000014B1878704700BF6A150020044B1A78FC
:10C270001043044A1870137843F001031370704799
:10C280006A15002008480020054A137823EA0003B5
:10C290001370044A137843F001031370704700BF12
:10C2A0006A15002008480020054A137823B1054983
:10C2B0000B7843F001030B7000231370704700BF2D
:10C2C0006A15002008480020044B1A781043044ADD
:10C2D0001870137843F0010313707047691500203C
:10C2E00008480020054A137823EA00031370044A23
:10C2F000137843F001031370704700BF69150020E5
:10C3000008480020054A137823B105490B7843F00B
:10C3100001030B7000231370704700BF69150020E4
:10C3200008480020704708B5FFF7FCFF08BD000073
:10C3300008B5054A1378034204D023EA00001070C0
:10C34000FFF7F1FF08BD00BF3D150020704708B59D
:10C35000FFF7FCFF08BD000010B505490B7830EA77
:10C36000030403D003430B70FFF7F1FF10BD00BFC0
:10C370003E15002008B5054A1378034204D023EA8D
:10C3800000001070FFF7E3FF08BD00BF3E1500205E
:10C3900008B5044B1A781AB100201870FFF7D7FFC0
:10C3A00008BD00BF3E15002070B5134B134D1C781F
:10C3B000134B2E681B781C43124B1B782BB11C436C
:10C3C00003F0E8FF08B1FFF7E3FF34702C680E4973
:10C3D0000822204608F06CFD38B10B48082221469F
:10C3E00008F0C5FD204603F089FF084A137823F0C2
:10C3F0000103137070BD00BF6A150020000E0020FD
:10C40000691500203E150020341500200848002042
:10C4100010B5084B084C1B7823B123789A0701D537
:10C42000FFF700FF2378DB0703D5BDE81040FFF7D7
:10C43000BBBF10BD320E002008480020704708B571
:10C44000FFF7FCFF08BD0000094A5278520710B5FB
:10C450000AD5084C41EAC0012170FFF7CFFB2078D4
:10C46000C008FFF7ECFF10BDBDE81040FFF7C6BBEA
:10C470000A4800203C15002008B5034B0020187026
:10C48000FFF7DDFF08BD00BF3C15002008B50A4AD4
:10C49000137823EA0000107042070CD198420AD0AA
:10C4A000064B5B785B0706D5C008FFF7B3FBBDE81A
:10C4B0000840FFF7E1BF08BD3C1500200A480020F6
:10C4C000094A08B55378C3F3800181420AD060F36A
:10C4D00082035370108800F038F8BDE8084002204D
:10C4E000FFF7D4BF08BD00BF0A480020044B5878AE
:10C4F000C0F3800080F0010000F00100FFF7E0BF12
:10C500000A4800200120FFF7DBBF0020FFF7D8BF5B
:10C5100008B500F0FDFDBDE808404FF6FF710020B2
:10C5200000F0D8BD08B5002000F06DFD4FF6E663C1
:10C53000C31A5842584108BD022000F055BD0320DF
:10C5400000F052BD042000F05EBD0146042000F062
:10C55000C1BD01460F2000F0CBBD0146132000F005
:10C56000C7BD0020FFF7F9BF08B50020FFF7F1FFB6
:10C57000FFF7F7FF08BD000007B500F0C9FD4FF653
:10C58000E661002000F0A6FD0021022000F094FDED
:10C590001C4B01210320198000F08EFD4FF4A051A7
:10C5A000042000F097FD0021062000F085FDFF210A
:10C5B000072000F081FD0021082000F099FD0021F6
:10C5C000242000F079FD0021172000F075FD0021E6
:10C5D0000C2000F071FD00210D2000F06DFD002306
:10C5E0000022CDE9002368460822182100F04AFD08
:10C5F0000021202000F07CFDFFF7B6FF03B05DF8BE
:10C6000004FB00BFC8140020FFF7B6BF01460E2090
:10C6100000F052BD73B50C4D04F0B2F82B88834284
:10C6200004460ED00026ADF8006004F0A9F8ADF87D
:10C630000460ADF8020002AB13E90300FEF75EFFF1
:10C640002C8002B070BD00BF6C15002008B504F04E
:10C6500061F8024B1860024B186008BD8415002079
:10C660008015002008B504F055F8024B1860024B05
:10C67000186008BD841500207C15002070477047A5
:10C6800008B5FFF7FCFF08BD0120704708B5054855
:10C6900000F0A0FA00F03AFDFFF7F0FFFFF7F0FF1F
:10C6A00008BD00BFCDCB00080120704708B5FFF7DB
:10C6B000FBFF08BD704708B5FEF7AAF8FFF7FAFFC1
:10C6C00008BD08B500F0A8FAFEF7EEFEBDE8084088
:10C6D00002F086BB08B504F01BF803F093F800F0F5
:10C6E00061FBFFF7EEFF03F0C5F9FEF74DFD08BD56
:10C6F000002003F0A1B900002DE9F04F85B0FFF74D
:10C70000C3FF88B9FFF786FFFFF7F2FF02F07EFD57
:10C7100003F0ACF808B1FFF7A5FF03F075FC05B016
:10C72000BDE8F04FFEF7D4BEDFF8C48000F052FB46
:10C7300046460024E0B236F8025B00F097FA052C7A
:10C7400050D0854204F10104F4D0284B1B789B079C
:10C7500001D500F091FAFFF7A9FF002701905FFAD9
:10C7600087FA504600F082FA38F8026BB04205466C
:10C7700032D04640B6B200244FF0010B16EA0B0F40
:10C7800020D005EA0B09019BB9F1000918BF4FF051
:10C79000010993B18DF808408DF809A003F0F0FF6E
:10C7A0004FF001038DF80C30ADF80A008DF80D90B4
:10C7B00002AB93E80300FEF7A1FE4A46214650462D
:10C7C00001F05EFB0134E4B24FEA4B03102C1FFA78
:10C7D00083FBD3D128F8025C0137062FBFD1FFF7C6
:10C7E00035FF91E78542B0D18CE700BF8815002066
:10C7F0006E15002038B500F003F9B0F5A44F0446DB
:10C8000043D2B0F5A04F80F0AE80DF2816D8CC28F8
:10C8100000F28C80A7280AD8A42879D8012804D04F
:10C82000031F9BB2A12B28BF0024204638BDA0F1D6
:10C83000A8039BB21A2B71D90024F6E7B0F5804FFC
:10C8400019D2B0F5005F80F0A080E728EDD9A0F5FF
:10C8500080739BB2B3F5F85FEED2C0F3072000F00F
:10C8600053F90546E0B200F0CBF82D0205F4F85577
:10C8700040EA050450E0C0B200F0C2F804F470646D
:10C88000204340F4204084B2CFE7B0F5A54F22D238
:10C8900045F25F23984253D845F23F2398420FD880
:10C8A00045F21F23984244D800F003040123C0F34B
:10C8B0008502A34043EA421343F40D439CB2B4E71C
:10C8C00000F003040123C0F38202A34043EA4213B1
:10C8D00043F40C43F2E745F2BF2398420AD845F2ED
:10C8E0009F23984200F01F0035D84AF2F40343EA30
:10C8F00000249AE7A0F5A543403B9BB21F2B9BD891
:10C90000040204F4F85444F4204444F0F0048CE7A6
:10C91000A0F1240444F48044A4B286E75834234BA5
:10C92000E4B233F8144044F488447EE740F4A04471
:10C93000F2E700F01F044AF2F10343EA042474E72B
:10C9400000F003040123C0F38202A34043EA421330
:10C9500043F40A43B2E700F0D7F8040204F4F854B1
:10C9600044F4005461E700F01F0000F0CDF803B27A
:10C97000C20648BF1B01C4F343144FEA042448BF56
:10C980001BB21C4344F41044C6E7C0F3042000F07B
:10C99000BBF80546E0B200F033F82D0205F4F85577
:10C9A000054345F40055ACB23FE700BF08630108FA
:10C9B000CBB2C1F30721052982B005D80F2B11D8BE
:10C9C0001A4602B0FEF76CBCFD2905D153B901220D
:10C9D000194602B0FEF776BCFC2903D113B91A46FA
:10C9E0001946F6E7002002B0704707B5ADF804100D
:10C9F0000199FFF7DDFF03B05DF804EBFFF7FABE26
:10CA0000E7284FD8DF2807D8312864D00ED8292846
:10CA100057D02A2866D07047A0F1E003072B41D8F1
:10CA2000DFE803F01540232831403C41392804D089
:10CA3000822802D035283FD07047324B1A789207AF
:10CA40001FD15B7813F0080F18BF292070472D4ABB
:10CA50001378D9074DD4527812F0010F22D013F079
:10CA6000100F14BF0020E3207047264B1B7813F0F3
:10CA7000040FF3E7234A137859073CD45278D207BE
:10CA8000EDD5E02070471F4B5A7891070AD51B78E7
:10CA900013F0100F14BF0020E7207047194B1B78CC
:10CAA0001A07F5D47047174A1378190725D4527816
:10CAB0009107EDD5E4207047124B1B7813F0200F3F
:10CAC000C2E7104B1A78920619D45B7813F0080F5E
:10CAD00018BF392070470B4B1B7813F0400F18BF5D
:10CAE0002A207047074B1B7813F0400F18BF3120E6
:10CAF000704739207047E2207047E62070473520A4
:10CB0000D0E700BF0A48002010B52F4C21784B0712
:10CB100013D500F01402A2F1040C00F01803DCF1AC
:10CB2000000242EB0C02A3F1080CDCF1000343EB22
:10CB30000C039A4218BF80F00C000B0713D500F0CD
:10CB40001402A2F1140C00F01803DCF1000242EB15
:10CB50000C02A3F1180CDCF1000343EB0C039A4226
:10CB600018BF80F00C006478E30713D500F01102C1
:10CB700002F1FF3C00F01803DCF1000242EB0C0272
:10CB8000A3F1080CDCF1000343EB0C039A4218BF3D
:10CB900080F00900A30711D500F0110200F018037E
:10CBA000A2F111046242A3F1180C6241DCF100030E
:10CBB00043EB0C039A4218BF80F00900CB0648BF34
:10CBC00000F0E70010BD00BF0A48002000207047B9
:10CBD00000207047014B1860704700BF040E002012
:10CBE000FFF796BC08B500F0F5F84FF47A6005F051
:10CBF0003CF800F0EFF8002000F038F8C30705D546
:10CC0000FFF7EEFFBDE8084003F0F8BD08BD08B52A
:10CC1000FFF7E8FF08BD000008B5FFF783FC08B97F
:10CC2000FFF7F2FCFFF788FC084B1870FFF78AFC4F
:10CC3000074B1880FFF7EBFFFFF781FCFEF7ABFF18
:10CC4000044B1888BDE80840FEF7C1BF88150020D6
:10CC50000A480020C6140020704708B5FFF7FCFF03
:10CC600008BD704708B5FFF7FCFF08BD014B33F85E
:10CC7000100070471848002070474FF4F07004F01F
:10CC8000A5BD00BF00BF00BF00BF00BF00BF00BF09
:10CC900000BF00BF00BF00BF00BF704708B5FFF76F
:10CCA000ECFF08BD08B5302383F31188012100F0A3
:10CCB0000F039940202220F00F0006F039FC0023DA
:10CCC00083F3118808BD000038B50C4D102455F8C9
:10CCD000040B421C01D0FFF7E5FF013C14F0FF04F8
:10CCE000F5D1074D062455F8040B431C01D0FFF77E
:10CCF000D9FF013C14F0FF04F5D138BD40630108B1
:10CD0000806301082DE9F843DFF8908058F821305E
:10CD10005C1C05460E4617463ED0302282F3118831
:10CD2000012223F00F0903F00F0302FA03F4214656
:10CD30004846A4B206F0FCFBA9F81A40002484F38C
:10CD40001188FFF79EFFDFF858C0A91E6FEA070E93
:10CD50000A355CF8042B31F8023F501C19D022F040
:10CD60000F0002F00F02006920FA02F2D20710D47D
:10CD70003B430124A9420B80EBD158F82600431C09
:10CD800001D0FFF78FFF21463046BDE8F843FFF79B
:10CD900085BF03EA0E03EDE7BDE8F88340630108B1
:10CDA0008063010808B5FFF78FFF0C2200210748B8
:10CDB00008F08EF80C220021054808F089F80620BA
:10CDC00000F038F8BDE80840FFF747BF18480020DA
:10CDD0000C48002030B585B00024019402940394DF
:10CDE00001252A46E1B201A80134FFF78BFF6D004F
:10CDF000102CADB2F5D10D480C2201A908F058F85D
:10CE0000002814BF0124002404D008480C2201A9E2
:10CE100008F0ADF8234606490448062200F02CF835
:10CE20000446FFF71FFF204605B030BD0C48002028
:10CE30001848002010B50446000107F0FBFE084A20
:10CE40000346106000EB04149C4200D110BD18464C
:10CE50001022002108F03CF803461033F4E700BF2D
:10CE60009015002010B5034C206807F0EBFE00235E
:10CE7000236010BD901500202DE9F04F454C464D24
:10CE800094F80080DFF81C9185B01E4600230290C4
:10CE9000039101922B70B8F1000F77D003F03AFCA8
:10CEA0003E4B1A681860821AFF2A3CD8B2B13C4B3C
:10CEB00001981B680021D2B2217089F8001003EBA1
:10CEC000001B8C468E465B452FD111B1012389F89A
:10CED0000030BCF1000F01D00123237046B9464653
:10CEE00099F80030DBB11EB903F014FC2B4B18602D
:10CEF0002B4AD2F80080039A002389F80030901E54
:10CF00001F464FF001094FF0140A0199DAB291421D
:10CF100008EB031C1CD817B101232B702370287851
:10CF200005B0BDE8F08FFF22C1E7581E03F10F0ADC
:10CF300010F8017F47B1BA4233BFBF1A80F800E052
:10CF40004146077038BFC4465045F1D11033BAE7A7
:10CF5000029A418832F8136000224E4009FA02FE1C
:10CF60001EEA060F1FFA8EFB09D01CF802E0BEF184
:10CF7000000F04D10CF802A08BEA01010127013255
:10CF8000102AEBD120F8021F0133BEE7002EA7D0F4
:10CF9000AAE700BF8B150020891500208C15002002
:10CFA000901500208A15002008B503F067FFFFF7F1
:10CFB00091FBBDE8084003F077BF08B503F07AFFA6
:10CFC000FFF79AFBBDE8084003F076BF08B503F011
:10CFD00066FB03F051FFFFF759FBFFF7E5FFFFF793
:10CFE000ECFFFFF768FBFAE707B5002301460122D3
:10CFF0000DF107008DF8073000F08CF89DF8070060
:10D0000003B05DF804FB07B50023014602220DF1D1
:10D010000600ADF8063000F07DF8BDF8060003B05C
:10D020005DF804FB07B50422014600230DEB020066
:10D03000019300F06FF8019803B05DF804FB07B5A9
:10D0400001228DF8071001460DF1070000F067F886
:10D0500003B05DF804FB07B50222ADF806100146E7
:10D060000DF1060000F05BF803B05DF804FB07B5B6
:10D070000422019101460DEB020000F050F803B0CC
:10D080005DF804FBF8B5D31D23F0070300AFADEB4B
:10D09000030D0546144668460E4600F03BF822464E
:10D0A0006946284607F004FF20B12246314628464B
:10D0B00000F035F8BD46F8BD38B50C460546FFF71B
:10D0C00093FFA04205D021462846BDE83840FFF72F
:10D0D000B6BF38BD38B50C460546FFF794FFA042F1
:10D0E00005D021462846BDE83840FFF7B4BF38BD1B
:10D0F00038B50C460546FFF795FFA04205D02146FE
:10D100002846BDE83840FFF7B2BF38BD00F048B947
:10D1100000F03CB80B460146184600F051B80B46EB
:10D120000146184600F0DAB808B54FF40062054829
:10D13000002107F0CDFE034A40F60803C2F800388C
:10D1400008BD00BF9415002010B5064C94F80438B3
:10D1500033B900F0A5F910B1012084F8040810BD1E
:10D160000220FCE79415002010B5074C94F8043811
:10D170003BB100F0DFF918B1002384F80438012036
:10D1800010BD0220FCE700BF9415002038B5FFF762
:10D19000DBFF044618B9FFF7E7FF204638BD00F073
:10D1A0008BF90546FFF7C0FF012C06D1FFF7DCFF26
:10D1B00000280CBF002505F001052C46EDE7000016
:10D1C00008B5034608469918B1F5006F05D804491B
:10D1D000194407F0CCFE012008BD0020FCE700BF89
:10D1E00094150020F8B506460F4615460024AC42BB
:10D1F00001D10120F8BD07EB840106EB840000F0AB
:10D20000E5F90028F6D00134F1E7F8B506460F46F7
:10D2100015460024AC4201D10120F8BD57F8241076
:10D2200006EB840000F06EF90028F6D00134F1E737
:10D2300037B500F041F9044628B3FFF785FF1649DA
:10D2400005464FF400720020FFF7DFFF044688B167
:10D250000FA3D3E9002310484FF4006102F096FABF
:10D260000222CDE9000169464FF40060FFF7CDFFCF
:10D270004400E4B2012D01D1FFF776FF064A40F6E3
:10D280000803C2F80038204603B030BDAFF3008079
:10D2900025232284E49CF2CB94150020044BD3F880
:10D2A0000038B3F5805F01D3FFF7C2BF012070479C
:10D2B0009415002010B5084C0146D4F8000800F081
:10D2C00021F940B1D4F800380433C4F80038BDE87F
:10D2D0001040FFF7E3BF10BD941500208318B3F58D
:10D2E000006F2DE9F74F06460F4615461BD82B4C0D
:10D2F00004442146384607F0DBFD00284BD02A467F
:10D300003946204607F033FEFFF71EFF804640B146
:10D310004FF0000A4FF0000B55B9FFF7BFFF04466E
:10D3200031E0FFF721FF0024204603B0BDE8F08F75
:10D33000052DA946C6F3024328BF4FF0050943EA6D
:10D34000C903CDE900AB4A468DF800303946330AAF
:10D350000DF103008DF801308DF8026007F007FE33
:10D360000098FFF7A7FF012804460CD1012D04D136
:10D37000A5EB09054E444F44CEE70198FFF79AFF0D
:10D3800001280446F4D0B8F1010FCDD1FFF7ECFE2F
:10D390000028C8D0C8E70124C6E700BF94150020C4
:10D3A0002DE9F04385B0FFF7BFFE00F0CBF830B9B0
:10D3B000FFF7BAFE0024204605B0BDE8F0833649E9
:10D3C000354D4FF400720020FFF70CFF90B330A3EF
:10D3D000D3E900234FF40061284602F0D7F9022276
:10D3E00006460C464FF4006002A9FFF7FBFEDDE99C
:10D3F00002239C4208BF964201D0FFF795FE274CBE
:10D4000040F6080601A9304600F0E0F8B8B3019BE9
:10D41000A3B313F0C00F06F104080293D9B20CD0E5
:10D42000C5F80088FFF704FF04460028C3D1FFF7C2
:10D430007BFEC0E7FFF778FEBAE71BBA0F04234074
:10D4400007F4E02747EA332707EBD103B3F5006F72
:10D450004FEAD109E4D811F0300F17D003A94046A4
:10D4600000F0B4F80028DBD008364A460DF10B0175
:10D47000E81907F07CFDB6F5805FC3D30120C5F83D
:10D4800000680028CED0FFF709FFCDE74646ECE75D
:10D4900025232284E49CF2CB9415002000FFFF009A
:10D4A00008B50021034804F0F7FEB0FA80F0400907
:10D4B00008BD00BFB84A00202DE9F041DFF84080E8
:10D4C0000E4F00210126D8F800308B4202D830469A
:10D4D000BDE8F081386803684D1C29465B699847B0
:10D4E0000446386804F07EFE0443E4B2012C8CBF8D
:10D4F000002606F001062946E5E700BFA01D002032
:10D50000080E0020094B73B51D68094B06461868C4
:10D510000368C943DC68019101AB04227119A0477B
:10D52000B0FA80F0400902B070BD00BF0C0E0020C0
:10D53000A01D002008B5024804F0BCFE012008BD73
:10D54000B84A00202DE9F0411A4D1B4B2B60FFF724
:10D55000F1FF286803685B689847184BB3F8226AA4
:10D5600000240746B602A046BB68013BA34210D97F
:10D5700001342868214604F062FE8044B8F5805FDB
:10D58000F2D30F4B28681C60012104F04BFE0D4BB9
:10D5900018600B4B1A684FF6FF739A4203D0094B81
:10D5A0001B68B34202D3084804F0EAF80120BDE842
:10D5B000F08100BFA01D0020B84A00200070FF1FAE
:10D5C000080E00200C0E00202D5C010838B50C4B15
:10D5D0000C4619680B4B0144186804F03DFE0A49DB
:10D5E0000A4A056800230120087013700B70117837
:10D5F00019B113701846236038BDEB43FBE700BF39
:10D600000C0E0020A01D00209D1D00209C1D002050
:10D6100030B585B010F47F4F0190C0F30725C0F3FB
:10D6200007420DD109B12A4B9A5C134614460020DB
:10D6300063F3070064F30F2062F3174005B030BDB9
:10D640009DF8044009B1224B9A5CFF2304EB44008F
:10D65000591B4000B0FBF3F04FF6AB7310FB03F324
:10D6600003EB440303EB4303DBB215FB03F4C3F109
:10D67000FF0313FB05F324121B12C4F1FF04C3F1D3
:10D68000FF0311FB02F114FB02F413FB02F3C1F3DD
:10D690000721C4F30724C3F30723062813D8DFE8C0
:10D6A00000F004060B090E12040014461A46134635
:10D6B0000A46BCE7134622460C461946F7E71C46C5
:10D6C00013460A46F9E713460A4621461C46EEE78A
:10D6D000B863010884B0012104B0FFF799BF0128A5
:10D6E00030B501D8C0B230BDB0F5F75F9DBF42097B
:10D6F0000832D2B2FF220124A3185910C3F3470500
:10D70000C3F34F0313FB03F39BB2834206D9013DDE
:10D71000EAB29442F0D9013CE0B2E4E7FF2902D03A
:10D720000135ECB2F5E70846DDE70000074B188845
:10D7300000EB402200EB820000F55850193080B217
:10D74000188000EB1020C0B2704700BF280E0020E8
:10D75000410648BFC34310B54CBFDAB202460D4C78
:10D76000C2F3011204EB420148BF03F00F034978F2
:10D7700054BF00F00F03013311FB03F114F8123012
:10D7800003EB2113DBB2020644BF5B42DBB283F042
:10D79000800010BD9863010884B001908DF80420CA
:10D7A000019B0020DAB262F30700C3F3072262F3A1
:10D7B0000F20C3F3074363F3174004B07047000022
:10D7C00084B030310A4B019013F811309B1A8DF858
:10D7D0000430019B0020DAB262F30700C3F3072292
:10D7E00062F30F20C3F3074363F3174004B070479D
:10D7F000A70C00200C4B84B003EB4103019093F87D
:10D8000061309B1A8DF80430019B0020DAB262F37C
:10D810000700C3F3072262F30F20C3F3074363F348
:10D82000174004B0704700BFA70C002030B5134D5F
:10D8300085B0303105EB410301905B78A3F1200402
:10D8400064B2002CBCBFC3F120035CB215F81130E8
:10D850009A1A2244C0B210448DF80400019B0020A3
:10D86000DAB262F30700C3F3072262F30F20C3F3B7
:10D87000074363F3174005B030BD00BFA70C00207D
:10D8800084B003EB43039DF81020019002EB530397
:10D890008DF80430019B0020DAB262F30700C3F375
:10D8A000072262F30F20C3F3074363F3174004B06A
:10D8B00070471FB5019048B20028BCBF494248B22A
:10D8C0005243C0F1380010FB002080B21C46FFF725
:10D8D00006FF00EB400004448DF80440019B00204B
:10D8E000DAB262F30700C3F3072262F30F20C3F337
:10D8F000074363F3174004B010BD00001FB5124C7E
